{
  "_format": "hh3-artifact-1",
  "contractName": "Monoracle",
  "sourceName": "contracts/Monoracle.sol",
  "abi": [
    {
      "inputs": [
        {
          "internalType": "string",
          "name": "_initialData",
          "type": "string"
        },
        {
          "internalType": "string",
          "name": "_apiUrl",
          "type": "string"
        },
        {
          "internalType": "string",
          "name": "_apiHeaders",
          "type": "string"
        },
        {
          "internalType": "string",
          "name": "_apiParameters",
          "type": "string"
        }
      ],
      "stateMutability": "nonpayable",
      "type": "constructor"
    },
    {
      "inputs": [],
      "name": "MASTER_WALLET",
      "outputs": [
        {
          "internalType": "address",
          "name": "",
          "type": "address"
        }
      ],
      "stateMutability": "view",
      "type": "function"
    },
    {
      "inputs": [],
      "name": "apiHeaders",
      "outputs": [
        {
          "internalType": "string",
          "name": "",
          "type": "string"
        }
      ],
      "stateMutability": "view",
      "type": "function"
    },
    {
      "inputs": [],
      "name": "apiParameters",
      "outputs": [
        {
          "internalType": "string",
          "name": "",
          "type": "string"
        }
      ],
      "stateMutability": "view",
      "type": "function"
    },
    {
      "inputs": [],
      "name": "apiUrl",
      "outputs": [
        {
          "internalType": "string",
          "name": "",
          "type": "string"
        }
      ],
      "stateMutability": "view",
      "type": "function"
    },
    {
      "inputs": [],
      "name": "creatorWallet",
      "outputs": [
        {
          "internalType": "address",
          "name": "",
          "type": "address"
        }
      ],
      "stateMutability": "view",
      "type": "function"
    },
    {
      "inputs": [],
      "name": "data",
      "outputs": [
        {
          "internalType": "string",
          "name": "",
          "type": "string"
        }
      ],
      "stateMutability": "view",
      "type": "function"
    },
    {
      "inputs": [],
      "name": "getData",
      "outputs": [
        {
          "internalType": "string",
          "name": "",
          "type": "string"
        }
      ],
      "stateMutability": "view",
      "type": "function"
    },
    {
      "inputs": [],
      "name": "lastUpdateTime",
      "outputs": [
        {
          "internalType": "uint256",
          "name": "",
          "type": "uint256"
        }
      ],
      "stateMutability": "view",
      "type": "function"
    },
    {
      "inputs": [
        {
          "internalType": "string",
          "name": "_newData",
          "type": "string"
        }
      ],
      "name": "updateData",
      "outputs": [],
      "stateMutability": "nonpayable",
      "type": "function"
    },
    {
      "inputs": [
        {
          "internalType": "string",
          "name": "_apiUrl",
          "type": "string"
        },
        {
          "internalType": "string",
          "name": "_apiHeaders",
          "type": "string"
        },
        {
          "internalType": "string",
          "name": "_apiParameters",
          "type": "string"
        }
      ],
      "name": "updateMetaData",
      "outputs": [],
      "stateMutability": "nonpayable",
      "type": "function"
    }
  ],
  "bytecode": "0x608060405234801561000f575f5ffd5b5060405161136e38038061136e8339818101604052810190610031919061020d565b335f5f6101000a81548173ffffffffffffffffffffffffffffffffffffffff021916908373ffffffffffffffffffffffffffffffffffffffff160217905550836001908161007f91906104f1565b50826004908161008f91906104f1565b504260058190555081600290816100a691906104f1565b5080600390816100b691906104f1565b50505050506105c0565b5f604051905090565b5f5ffd5b5f5ffd5b5f5ffd5b5f5ffd5b5f601f19601f8301169050919050565b7f4e487b71000000000000000000000000000000000000000000000000000000005f52604160045260245ffd5b61011f826100d9565b810181811067ffffffffffffffff8211171561013e5761013d6100e9565b5b80604052505050565b5f6101506100c0565b905061015c8282610116565b919050565b5f67ffffffffffffffff82111561017b5761017a6100e9565b5b610184826100d9565b9050602081019050919050565b8281835e5f83830152505050565b5f6101b16101ac84610161565b610147565b9050828152602081018484840111156101cd576101cc6100d5565b5b6101d8848285610191565b509392505050565b5f82601f8301126101f4576101f36100d1565b5b815161020484826020860161019f565b91505092915050565b5f5f5f5f60808587031215610225576102246100c9565b5b5f85015167ffffffffffffffff811115610242576102416100cd565b5b61024e878288016101e0565b945050602085015167ffffffffffffffff81111561026f5761026e6100cd565b5b61027b878288016101e0565b935050604085015167ffffffffffffffff81111561029c5761029b6100cd565b5b6102a8878288016101e0565b925050606085015167ffffffffffffffff8111156102c9576102c86100cd565b5b6102d5878288016101e0565b91505092959194509250565b5f81519050919050565b7f4e487b71000000000000000000000000000000000000000000000000000000005f52602260045260245ffd5b5f600282049050600182168061032f57607f821691505b602082108103610342576103416102eb565b5b50919050565b5f819050815f5260205f209050919050565b5f6020601f8301049050919050565b5f82821b905092915050565b5f600883026103a47fffffffffffffffffffffffffffffffffffffffffffffffffffffffffffffffff82610369565b6103ae8683610369565b95508019841693508086168417925050509392505050565b5f819050919050565b5f819050919050565b5f6103f26103ed6103e8846103c6565b6103cf565b6103c6565b9050919050565b5f819050919050565b61040b836103d8565b61041f610417826103f9565b848454610375565b825550505050565b5f5f905090565b610436610427565b610441818484610402565b505050565b5b81811015610464576104595f8261042e565b600181019050610447565b5050565b601f8211156104a95761047a81610348565b6104838461035a565b81016020851015610492578190505b6104a661049e8561035a565b830182610446565b50505b505050565b5f82821c905092915050565b5f6104c95f19846008026104ae565b1980831691505092915050565b5f6104e183836104ba565b9150826002028217905092915050565b6104fa826102e1565b67ffffffffffffffff811115610513576105126100e9565b5b61051d8254610318565b610528828285610468565b5f60209050601f831160018114610559575f8415610547578287015190505b61055185826104d6565b8655506105b8565b601f19841661056786610348565b5f5b8281101561058e57848901518255600182019150602085019450602081019050610569565b868310156105ab57848901516105a7601f8916826104ba565b8355505b6001600288020188555050505b505050505050565b610da1806105cd5f395ff3fe608060405234801561000f575f5ffd5b506004361061009c575f3560e01c806368446ead1161006457806368446ead1461013457806373d4a13a146101505780637cdc65f21461016e5780638367e1201461018c578063c8f33c91146101aa5761009c565b8063056c4d88146100a05780633bc5de30146100be5780633c2c4b5e146100dc57806357463d92146100fa5780635be323f414610116575b5f5ffd5b6100a86101c8565b6040516100b59190610740565b60405180910390f35b6100c6610254565b6040516100d39190610740565b60405180910390f35b6100e46102e4565b6040516100f1919061079f565b60405180910390f35b610114600480360381019061010f91906108f5565b6102fc565b005b61011e610410565b60405161012b9190610740565b60405180910390f35b61014e60048036038101906101499190610999565b61049c565b005b61015861058e565b6040516101659190610740565b60405180910390f35b61017661061a565b604051610183919061079f565b60405180910390f35b61019461063e565b6040516101a19190610740565b60405180910390f35b6101b26106ca565b6040516101bf91906109f8565b60405180910390f35b600380546101d590610a3e565b80601f016020809104026020016040519081016040528092919081815260200182805461020190610a3e565b801561024c5780601f106102235761010080835404028352916020019161024c565b820191905f5260205f20905b81548152906001019060200180831161022f57829003601f168201915b505050505081565b60606001805461026390610a3e565b80601f016020809104026020016040519081016040528092919081815260200182805461028f90610a3e565b80156102da5780601f106102b1576101008083540402835291602001916102da565b820191905f5260205f20905b8154815290600101906020018083116102bd57829003601f168201915b5050505050905090565b73f739af0c0cc448b41c47cc38070f10a0b4be50b481565b73f739af0c0cc448b41c47cc38070f10a0b4be50b473ffffffffffffffffffffffffffffffffffffffff163373ffffffffffffffffffffffffffffffffffffffff16148061039557505f5f9054906101000a900473ffffffffffffffffffffffffffffffffffffffff1673ffffffffffffffffffffffffffffffffffffffff163373ffffffffffffffffffffffffffffffffffffffff16145b6103d4576040517f08c379a00000000000000000000000000000000000000000000000000000000081526004016103cb90610ade565b60405180910390fd5b82600490816103e39190610c9c565b504260058190555081600290816103fa9190610c9c565b50806003908161040a9190610c9c565b50505050565b6002805461041d90610a3e565b80601f016020809104026020016040519081016040528092919081815260200182805461044990610a3e565b80156104945780601f1061046b57610100808354040283529160200191610494565b820191905f5260205f20905b81548152906001019060200180831161047757829003601f168201915b505050505081565b73f739af0c0cc448b41c47cc38070f10a0b4be50b473ffffffffffffffffffffffffffffffffffffffff163373ffffffffffffffffffffffffffffffffffffffff16148061053557505f5f9054906101000a900473ffffffffffffffffffffffffffffffffffffffff1673ffffffffffffffffffffffffffffffffffffffff163373ffffffffffffffffffffffffffffffffffffffff16145b610574576040517f08c379a000000000000000000000000000000000000000000000000000000000815260040161056b90610ade565b60405180910390fd5b80600190816105839190610c9c565b504260058190555050565b6001805461059b90610a3e565b80601f01602080910402602001604051908101604052809291908181526020018280546105c790610a3e565b80156106125780601f106105e957610100808354040283529160200191610612565b820191905f5260205f20905b8154815290600101906020018083116105f557829003601f168201915b505050505081565b5f5f9054906101000a900473ffffffffffffffffffffffffffffffffffffffff1681565b6004805461064b90610a3e565b80601f016020809104026020016040519081016040528092919081815260200182805461067790610a3e565b80156106c25780601f10610699576101008083540402835291602001916106c2565b820191905f5260205f20905b8154815290600101906020018083116106a557829003601f168201915b505050505081565b60055481565b5f81519050919050565b5f82825260208201905092915050565b8281835e5f83830152505050565b5f601f19601f8301169050919050565b5f610712826106d0565b61071c81856106da565b935061072c8185602086016106ea565b610735816106f8565b840191505092915050565b5f6020820190508181035f8301526107588184610708565b905092915050565b5f73ffffffffffffffffffffffffffffffffffffffff82169050919050565b5f61078982610760565b9050919050565b6107998161077f565b82525050565b5f6020820190506107b25f830184610790565b92915050565b5f604051905090565b5f5ffd5b5f5ffd5b5f5ffd5b5f5ffd5b7f4e487b71000000000000000000000000000000000000000000000000000000005f52604160045260245ffd5b610807826106f8565b810181811067ffffffffffffffff82111715610826576108256107d1565b5b80604052505050565b5f6108386107b8565b905061084482826107fe565b919050565b5f67ffffffffffffffff821115610863576108626107d1565b5b61086c826106f8565b9050602081019050919050565b828183375f83830152505050565b5f61089961089484610849565b61082f565b9050828152602081018484840111156108b5576108b46107cd565b5b6108c0848285610879565b509392505050565b5f82601f8301126108dc576108db6107c9565b5b81356108ec848260208601610887565b91505092915050565b5f5f5f6060848603121561090c5761090b6107c1565b5b5f84013567ffffffffffffffff811115610929576109286107c5565b5b610935868287016108c8565b935050602084013567ffffffffffffffff811115610956576109556107c5565b5b610962868287016108c8565b925050604084013567ffffffffffffffff811115610983576109826107c5565b5b61098f868287016108c8565b9150509250925092565b5f602082840312156109ae576109ad6107c1565b5b5f82013567ffffffffffffffff8111156109cb576109ca6107c5565b5b6109d7848285016108c8565b91505092915050565b5f819050919050565b6109f2816109e0565b82525050565b5f602082019050610a0b5f8301846109e9565b92915050565b7f4e487b71000000000000000000000000000000000000000000000000000000005f52602260045260245ffd5b5f6002820490506001821680610a5557607f821691505b602082108103610a6857610a67610a11565b5b50919050565b7f4f6e6c79206d61737465722077616c6c6574206f722063726561746f722063615f8201527f6e2063616c6c20746869732066756e6374696f6e000000000000000000000000602082015250565b5f610ac86034836106da565b9150610ad382610a6e565b604082019050919050565b5f6020820190508181035f830152610af581610abc565b9050919050565b5f819050815f5260205f209050919050565b5f6020601f8301049050919050565b5f82821b905092915050565b5f60088302610b587fffffffffffffffffffffffffffffffffffffffffffffffffffffffffffffffff82610b1d565b610b628683610b1d565b95508019841693508086168417925050509392505050565b5f819050919050565b5f610b9d610b98610b93846109e0565b610b7a565b6109e0565b9050919050565b5f819050919050565b610bb683610b83565b610bca610bc282610ba4565b848454610b29565b825550505050565b5f5f905090565b610be1610bd2565b610bec818484610bad565b505050565b5b81811015610c0f57610c045f82610bd9565b600181019050610bf2565b5050565b601f821115610c5457610c2581610afc565b610c2e84610b0e565b81016020851015610c3d578190505b610c51610c4985610b0e565b830182610bf1565b50505b505050565b5f82821c905092915050565b5f610c745f1984600802610c59565b1980831691505092915050565b5f610c8c8383610c65565b9150826002028217905092915050565b610ca5826106d0565b67ffffffffffffffff811115610cbe57610cbd6107d1565b5b610cc88254610a3e565b610cd3828285610c13565b5f60209050601f831160018114610d04575f8415610cf2578287015190505b610cfc8582610c81565b865550610d63565b601f198416610d1286610afc565b5f5b82811015610d3957848901518255600182019150602085019450602081019050610d14565b86831015610d565784890151610d52601f891682610c65565b8355505b6001600288020188555050505b50505050505056fea264697066735822122053347b027597377aa77fc05567edeb5f734c2bcdfcec0487a8f11929fbdf743764736f6c634300081c0033",
  "linkReferences": {},
  "deployedLinkReferences": {},
  "immutableReferences": {},
  "inputSourceName": "project/contracts/Monoracle.sol",
  "buildInfoId": "solc-0_8_28-6383083b919a440f2c08036bdb716aaeaf8bfe62"
}